{
  "contractName": "PostContract",
  "abi": [
    {
      "inputs": [],
      "name": "postCount",
      "outputs": [
        {
          "internalType": "uint256",
          "name": "",
          "type": "uint256"
        }
      ],
      "stateMutability": "view",
      "type": "function",
      "constant": true
    },
    {
      "inputs": [
        {
          "internalType": "uint256",
          "name": "",
          "type": "uint256"
        }
      ],
      "name": "posts",
      "outputs": [
        {
          "internalType": "string",
          "name": "userId",
          "type": "string"
        },
        {
          "internalType": "string",
          "name": "userNickname",
          "type": "string"
        },
        {
          "internalType": "string",
          "name": "userPhone",
          "type": "string"
        },
        {
          "internalType": "string",
          "name": "postId",
          "type": "string"
        },
        {
          "internalType": "string",
          "name": "postImageUrl",
          "type": "string"
        },
        {
          "internalType": "string",
          "name": "postTitle",
          "type": "string"
        },
        {
          "internalType": "string",
          "name": "postPrice",
          "type": "string"
        },
        {
          "internalType": "string",
          "name": "postContent",
          "type": "string"
        },
        {
          "internalType": "uint256",
          "name": "createdAt",
          "type": "uint256"
        }
      ],
      "stateMutability": "view",
      "type": "function",
      "constant": true
    },
    {
      "inputs": [
        {
          "internalType": "string",
          "name": "_userId",
          "type": "string"
        },
        {
          "internalType": "string",
          "name": "_userNickname",
          "type": "string"
        },
        {
          "internalType": "string",
          "name": "_userPhone",
          "type": "string"
        },
        {
          "internalType": "string",
          "name": "_postId",
          "type": "string"
        },
        {
          "internalType": "string",
          "name": "_postImageUrl",
          "type": "string"
        },
        {
          "internalType": "string",
          "name": "_postTitle",
          "type": "string"
        },
        {
          "internalType": "string",
          "name": "_postPrice",
          "type": "string"
        },
        {
          "internalType": "string",
          "name": "_postContent",
          "type": "string"
        },
        {
          "internalType": "uint256",
          "name": "_createdAt",
          "type": "uint256"
        }
      ],
      "name": "createPost",
      "outputs": [],
      "stateMutability": "nonpayable",
      "type": "function"
    },
    {
      "inputs": [
        {
          "internalType": "uint256",
          "name": "_postId",
          "type": "uint256"
        }
      ],
      "name": "getPost",
      "outputs": [
        {
          "internalType": "string",
          "name": "",
          "type": "string"
        },
        {
          "internalType": "string",
          "name": "",
          "type": "string"
        },
        {
          "internalType": "uint256",
          "name": "",
          "type": "uint256"
        },
        {
          "internalType": "string",
          "name": "",
          "type": "string"
        },
        {
          "internalType": "string",
          "name": "",
          "type": "string"
        }
      ],
      "stateMutability": "view",
      "type": "function",
      "constant": true
    },
    {
      "inputs": [
        {
          "internalType": "string",
          "name": "_userId",
          "type": "string"
        }
      ],
      "name": "getPostsByName",
      "outputs": [
        {
          "components": [
            {
              "internalType": "string",
              "name": "userId",
              "type": "string"
            },
            {
              "internalType": "string",
              "name": "userNickname",
              "type": "string"
            },
            {
              "internalType": "string",
              "name": "userPhone",
              "type": "string"
            },
            {
              "internalType": "string",
              "name": "postId",
              "type": "string"
            },
            {
              "internalType": "string",
              "name": "postImageUrl",
              "type": "string"
            },
            {
              "internalType": "string",
              "name": "postTitle",
              "type": "string"
            },
            {
              "internalType": "string",
              "name": "postPrice",
              "type": "string"
            },
            {
              "internalType": "string",
              "name": "postContent",
              "type": "string"
            },
            {
              "internalType": "uint256",
              "name": "createdAt",
              "type": "uint256"
            }
          ],
          "internalType": "struct PostContract.Post[]",
          "name": "",
          "type": "tuple[]"
        },
        {
          "internalType": "uint256",
          "name": "",
          "type": "uint256"
        }
      ],
      "stateMutability": "view",
      "type": "function",
      "constant": true
    }
  ],
  "bytecode": "0x608060405234801561001057600080fd5b50611d90806100206000396000f3fe608060405234801561001057600080fd5b50600436106100575760003560e01c80630b1e7f831461005c57806317906c2e146100945780632d99f6ca146100b257806340731c24146100e3578063d2447aa914610117575b600080fd5b61007660048036038101906100719190611618565b610133565b60405161008b99989796959493929190611939565b60405180910390f35b61009c6105c1565b6040516100a99190611a8d565b60405180910390f35b6100cc60048036038101906100c79190611451565b6105c7565b6040516100da929190611909565b60405180910390f35b6100fd60048036038101906100f89190611618565b610c35565b60405161010e9594939291906119fe565b60405180910390f35b610131600480360381019061012c9190611492565b611178565b005b600060205280600052604060002060009150905080600001805461015690611bd0565b80601f016020809104026020016040519081016040528092919081815260200182805461018290611bd0565b80156101cf5780601f106101a4576101008083540402835291602001916101cf565b820191906000526020600020905b8154815290600101906020018083116101b257829003601f168201915b5050505050908060010180546101e490611bd0565b80601f016020809104026020016040519081016040528092919081815260200182805461021090611bd0565b801561025d5780601f106102325761010080835404028352916020019161025d565b820191906000526020600020905b81548152906001019060200180831161024057829003601f168201915b50505050509080600201805461027290611bd0565b80601f016020809104026020016040519081016040528092919081815260200182805461029e90611bd0565b80156102eb5780601f106102c0576101008083540402835291602001916102eb565b820191906000526020600020905b8154815290600101906020018083116102ce57829003601f168201915b50505050509080600301805461030090611bd0565b80601f016020809104026020016040519081016040528092919081815260200182805461032c90611bd0565b80156103795780601f1061034e57610100808354040283529160200191610379565b820191906000526020600020905b81548152906001019060200180831161035c57829003601f168201915b50505050509080600401805461038e90611bd0565b80601f01602080910402602001604051908101604052809291908181526020018280546103ba90611bd0565b80156104075780601f106103dc57610100808354040283529160200191610407565b820191906000526020600020905b8154815290600101906020018083116103ea57829003601f168201915b50505050509080600501805461041c90611bd0565b80601f016020809104026020016040519081016040528092919081815260200182805461044890611bd0565b80156104955780601f1061046a57610100808354040283529160200191610495565b820191906000526020600020905b81548152906001019060200180831161047857829003601f168201915b5050505050908060060180546104aa90611bd0565b80601f01602080910402602001604051908101604052809291908181526020018280546104d690611bd0565b80156105235780601f106104f857610100808354040283529160200191610523565b820191906000526020600020905b81548152906001019060200180831161050657829003601f168201915b50505050509080600701805461053890611bd0565b80601f016020809104026020016040519081016040528092919081815260200182805461056490611bd0565b80156105b15780601f10610586576101008083540402835291602001916105b1565b820191906000526020600020905b81548152906001019060200180831161059457829003601f168201915b5050505050908060080154905089565b60015481565b6060600080600090506000600190505b600154811161063a57848051906020012060008083815260200190815260200160002060000160405161060a91906118f2565b6040518091039020141561062757818061062390611c33565b9250505b808061063290611c33565b9150506105d7565b5060008167ffffffffffffffff81111561067d577f4e487b7100000000000000000000000000000000000000000000000000000000600052604160045260246000fd5b6040519080825280602002602001820160405280156106b657816020015b6106a36112e5565b81526020019060019003908161069b5790505b509050600080600190505b6001548111610c265786805190602001206000808381526020019081526020016000206000016040516106f491906118f2565b60405180910390201415610c135760008060008381526020019081526020016000206040518061012001604052908160008201805461073290611bd0565b80601f016020809104026020016040519081016040528092919081815260200182805461075e90611bd0565b80156107ab5780601f10610780576101008083540402835291602001916107ab565b820191906000526020600020905b81548152906001019060200180831161078e57829003601f168201915b505050505081526020016001820180546107c490611bd0565b80601f01602080910402602001604051908101604052809291908181526020018280546107f090611bd0565b801561083d5780601f106108125761010080835404028352916020019161083d565b820191906000526020600020905b81548152906001019060200180831161082057829003601f168201915b5050505050815260200160028201805461085690611bd0565b80601f016020809104026020016040519081016040528092919081815260200182805461088290611bd0565b80156108cf5780601f106108a4576101008083540402835291602001916108cf565b820191906000526020600020905b8154815290600101906020018083116108b257829003601f168201915b505050505081526020016003820180546108e890611bd0565b80601f016020809104026020016040519081016040528092919081815260200182805461091490611bd0565b80156109615780601f1061093657610100808354040283529160200191610961565b820191906000526020600020905b81548152906001019060200180831161094457829003601f168201915b5050505050815260200160048201805461097a90611bd0565b80601f01602080910402602001604051908101604052809291908181526020018280546109a690611bd0565b80156109f35780601f106109c8576101008083540402835291602001916109f3565b820191906000526020600020905b8154815290600101906020018083116109d657829003601f168201915b50505050508152602001600582018054610a0c90611bd0565b80601f0160208091040260200160405190810160405280929190818152602001828054610a3890611bd0565b8015610a855780601f10610a5a57610100808354040283529160200191610a85565b820191906000526020600020905b815481529060010190602001808311610a6857829003601f168201915b50505050508152602001600682018054610a9e90611bd0565b80601f0160208091040260200160405190810160405280929190818152602001828054610aca90611bd0565b8015610b175780601f10610aec57610100808354040283529160200191610b17565b820191906000526020600020905b815481529060010190602001808311610afa57829003601f168201915b50505050508152602001600782018054610b3090611bd0565b80601f0160208091040260200160405190810160405280929190818152602001828054610b5c90611bd0565b8015610ba95780601f10610b7e57610100808354040283529160200191610ba9565b820191906000526020600020905b815481529060010190602001808311610b8c57829003601f168201915b50505050508152602001600882015481525050905080848481518110610bf8577f4e487b7100000000000000000000000000000000000000000000000000000000600052603260045260246000fd5b60200260200101819052508280610c0e90611c33565b935050505b8080610c1e90611c33565b9150506106c1565b50818394509450505050915091565b6060806000606080600086118015610c4f57506001548611155b610c8e576040517f08c379a0000000000000000000000000000000000000000000000000000000008152600401610c8590611a6d565b60405180910390fd5b600080600088815260200190815260200160002060405180610120016040529081600082018054610cbe90611bd0565b80601f0160208091040260200160405190810160405280929190818152602001828054610cea90611bd0565b8015610d375780601f10610d0c57610100808354040283529160200191610d37565b820191906000526020600020905b815481529060010190602001808311610d1a57829003601f168201915b50505050508152602001600182018054610d5090611bd0565b80601f0160208091040260200160405190810160405280929190818152602001828054610d7c90611bd0565b8015610dc95780601f10610d9e57610100808354040283529160200191610dc9565b820191906000526020600020905b815481529060010190602001808311610dac57829003601f168201915b50505050508152602001600282018054610de290611bd0565b80601f0160208091040260200160405190810160405280929190818152602001828054610e0e90611bd0565b8015610e5b5780601f10610e3057610100808354040283529160200191610e5b565b820191906000526020600020905b815481529060010190602001808311610e3e57829003601f168201915b50505050508152602001600382018054610e7490611bd0565b80601f0160208091040260200160405190810160405280929190818152602001828054610ea090611bd0565b8015610eed5780601f10610ec257610100808354040283529160200191610eed565b820191906000526020600020905b815481529060010190602001808311610ed057829003601f168201915b50505050508152602001600482018054610f0690611bd0565b80601f0160208091040260200160405190810160405280929190818152602001828054610f3290611bd0565b8015610f7f5780601f10610f5457610100808354040283529160200191610f7f565b820191906000526020600020905b815481529060010190602001808311610f6257829003601f168201915b50505050508152602001600582018054610f9890611bd0565b80601f0160208091040260200160405190810160405280929190818152602001828054610fc490611bd0565b80156110115780601f10610fe657610100808354040283529160200191611011565b820191906000526020600020905b815481529060010190602001808311610ff457829003601f168201915b5050505050815260200160068201805461102a90611bd0565b80601f016020809104026020016040519081016040528092919081815260200182805461105690611bd0565b80156110a35780601f10611078576101008083540402835291602001916110a3565b820191906000526020600020905b81548152906001019060200180831161108657829003601f168201915b505050505081526020016007820180546110bc90611bd0565b80601f01602080910402602001604051908101604052809291908181526020018280546110e890611bd0565b80156111355780601f1061110a57610100808354040283529160200191611135565b820191906000526020600020905b81548152906001019060200180831161111857829003601f168201915b505050505081526020016008820154815250509050806000015181606001518261010001518360c001518460800151955095509550955095505091939590929450565b6001600081548092919061118b90611c33565b91905055506040518061012001604052808a81526020018981526020018881526020018781526020018681526020018581526020018481526020018381526020018281525060008060015481526020019081526020016000206000820151816000019080519060200190611200929190611331565b50602082015181600101908051906020019061121d929190611331565b50604082015181600201908051906020019061123a929190611331565b506060820151816003019080519060200190611257929190611331565b506080820151816004019080519060200190611274929190611331565b5060a0820151816005019080519060200190611291929190611331565b5060c08201518160060190805190602001906112ae929190611331565b5060e08201518160070190805190602001906112cb929190611331565b506101008201518160080155905050505050505050505050565b6040518061012001604052806060815260200160608152602001606081526020016060815260200160608152602001606081526020016060815260200160608152602001600081525090565b82805461133d90611bd0565b90600052602060002090601f01602090048101928261135f57600085556113a6565b82601f1061137857805160ff19168380011785556113a6565b828001600101855582156113a6579182015b828111156113a557825182559160200191906001019061138a565b5b5090506113b391906113b7565b5090565b5b808211156113d05760008160009055506001016113b8565b5090565b60006113e76113e284611acd565b611aa8565b9050828152602081018484840111156113ff57600080fd5b61140a848285611b8e565b509392505050565b600082601f83011261142357600080fd5b81356114338482602086016113d4565b91505092915050565b60008135905061144b81611d43565b92915050565b60006020828403121561146357600080fd5b600082013567ffffffffffffffff81111561147d57600080fd5b61148984828501611412565b91505092915050565b60008060008060008060008060006101208a8c0312156114b157600080fd5b60008a013567ffffffffffffffff8111156114cb57600080fd5b6114d78c828d01611412565b99505060208a013567ffffffffffffffff8111156114f457600080fd5b6115008c828d01611412565b98505060408a013567ffffffffffffffff81111561151d57600080fd5b6115298c828d01611412565b97505060608a013567ffffffffffffffff81111561154657600080fd5b6115528c828d01611412565b96505060808a013567ffffffffffffffff81111561156f57600080fd5b61157b8c828d01611412565b95505060a08a013567ffffffffffffffff81111561159857600080fd5b6115a48c828d01611412565b94505060c08a013567ffffffffffffffff8111156115c157600080fd5b6115cd8c828d01611412565b93505060e08a013567ffffffffffffffff8111156115ea57600080fd5b6115f68c828d01611412565b9250506101006116088c828d0161143c565b9150509295985092959850929598565b60006020828403121561162a57600080fd5b60006116388482850161143c565b91505092915050565b600061164d83836117de565b905092915050565b600061166082611b23565b61166a8185611b46565b93508360208202850161167c85611afe565b8060005b858110156116b857848403895281516116998582611641565b94506116a483611b39565b925060208a01995050600181019050611680565b50829750879550505050505092915050565b600081546116d781611bd0565b6116e18186611b57565b945060018216600081146116fc576001811461170d57611740565b60ff19831686528186019350611740565b61171685611b0e565b60005b8381101561173857815481890152600182019150602081019050611719565b838801955050505b50505092915050565b600061175482611b2e565b61175e8185611b62565b935061176e818560208601611b9d565b61177781611d09565b840191505092915050565b600061178d82611b2e565b6117978185611b73565b93506117a7818560208601611b9d565b6117b081611d09565b840191505092915050565b60006117c8600f83611b73565b91506117d382611d1a565b602082019050919050565b60006101208301600083015184820360008601526117fc8282611749565b915050602083015184820360208601526118168282611749565b915050604083015184820360408601526118308282611749565b9150506060830151848203606086015261184a8282611749565b915050608083015184820360808601526118648282611749565b91505060a083015184820360a086015261187e8282611749565b91505060c083015184820360c08601526118988282611749565b91505060e083015184820360e08601526118b28282611749565b9150506101008301516118c96101008601826118d4565b508091505092915050565b6118dd81611b84565b82525050565b6118ec81611b84565b82525050565b60006118fe82846116ca565b915081905092915050565b600060408201905081810360008301526119238185611655565b905061193260208301846118e3565b9392505050565b6000610120820190508181036000830152611954818c611782565b90508181036020830152611968818b611782565b9050818103604083015261197c818a611782565b905081810360608301526119908189611782565b905081810360808301526119a48188611782565b905081810360a08301526119b88187611782565b905081810360c08301526119cc8186611782565b905081810360e08301526119e08185611782565b90506119f06101008301846118e3565b9a9950505050505050505050565b600060a0820190508181036000830152611a188188611782565b90508181036020830152611a2c8187611782565b9050611a3b60408301866118e3565b8181036060830152611a4d8185611782565b90508181036080830152611a618184611782565b90509695505050505050565b60006020820190508181036000830152611a86816117bb565b9050919050565b6000602082019050611aa260008301846118e3565b92915050565b6000611ab2611ac3565b9050611abe8282611c02565b919050565b6000604051905090565b600067ffffffffffffffff821115611ae857611ae7611cda565b5b611af182611d09565b9050602081019050919050565b6000819050602082019050919050565b60008190508160005260206000209050919050565b600081519050919050565b600081519050919050565b6000602082019050919050565b600082825260208201905092915050565b600081905092915050565b600082825260208201905092915050565b600082825260208201905092915050565b6000819050919050565b82818337600083830152505050565b60005b83811015611bbb578082015181840152602081019050611ba0565b83811115611bca576000848401525b50505050565b60006002820490506001821680611be857607f821691505b60208210811415611bfc57611bfb611cab565b5b50919050565b611c0b82611d09565b810181811067ffffffffffffffff82111715611c2a57611c29611cda565b5b80604052505050565b6000611c3e82611b84565b91507fffffffffffffffffffffffffffffffffffffffffffffffffffffffffffffffff821415611c7157611c70611c7c565b5b600182019050919050565b7f4e487b7100000000000000000000000000000000000000000000000000000000600052601160045260246000fd5b7f4e487b7100000000000000000000000000000000000000000000000000000000600052602260045260246000fd5b7f4e487b7100000000000000000000000000000000000000000000000000000000600052604160045260246000fd5b6000601f19601f8301169050919050565b7f496e76616c696420706f73742049440000000000000000000000000000000000600082015250565b611d4c81611b84565b8114611d5757600080fd5b5056fea264697066735822122047925d9c4696ca61581d1fe9e262dc48fb0ebf2b43d129242d206ecc4949b01764736f6c63430008020033",
  "immutableReferences": {},
  "source": "// SPDX-License-Identifier: MIT\r\npragma solidity ^0.8.2;\r\n\r\ncontract PostContract {\r\n    struct Post {\r\n        string userId;\r\n        string userNickname;\r\n        string userPhone;\r\n        string postId;\r\n        string postImageUrl;\r\n        string postTitle;\r\n        string postPrice;\r\n        string postContent;\r\n        uint256 createdAt;\r\n    }\r\n\r\n    mapping(uint256 => Post) public posts;\r\n    uint256 public postCount;\r\n\r\n    function createPost(\r\n        string memory _userId,\r\n        string memory _userNickname,\r\n        string memory _userPhone,\r\n        string memory _postId,\r\n        string memory _postImageUrl,\r\n        string memory _postTitle,\r\n        string memory _postPrice,\r\n        string memory _postContent,\r\n        uint256 _createdAt\r\n    ) public {\r\n        postCount++;\r\n        posts[postCount] = Post({\r\n            userId: _userId,\r\n            userNickname: _userNickname,\r\n            userPhone: _userPhone,\r\n            postId: _postId,\r\n            postImageUrl: _postImageUrl,\r\n            postTitle: _postTitle,\r\n            postPrice: _postPrice,\r\n            postContent: _postContent,\r\n            createdAt: _createdAt\r\n        });\r\n    }\r\n\r\n    function getPost(uint256 _postId) public view returns (string memory, string memory, uint256,string memory, string memory) {\r\n        require(_postId > 0 && _postId <= postCount, \"Invalid post ID\");\r\n        Post memory post = posts[_postId];\r\n        return (post.userId, post.postId, post.createdAt, post.postPrice, post.postImageUrl);\r\n    }\r\n\r\n    function getPostsByName(string memory _userId) public view returns (Post[] memory, uint256) {\r\n        uint256 count = 0;\r\n        \r\n        for (uint256 i = 1; i <= postCount; i++) {\r\n            if (keccak256(bytes(posts[i].userId)) == keccak256(bytes(_userId))) {\r\n                count++;\r\n            }\r\n        }\r\n\r\n        Post[] memory filteredPosts = new Post[](count);\r\n        \r\n        uint256 currentIndex = 0;\r\n\r\n        for (uint256 i = 1; i <= postCount; i++) {\r\n            if (keccak256(bytes(posts[i].userId)) == keccak256(bytes(_userId))) {\r\n                Post memory post = posts[i];\r\n                filteredPosts[currentIndex] = post;\r\n                currentIndex++;\r\n            }\r\n        }\r\n\r\n        return (filteredPosts, count);\r\n    }\r\n}\r\n\r\n",
  "sourcePath": "C:\\Users\\cotnc\\Desktop\\project\\code\\truffle_pr\\contracts\\postContract.sol",
  "compiler": {
    "name": "solc",
    "version": "0.8.2+commit.661d1103.Emscripten.clang"
  },
  "schemaVersion": "3.4.14",
  "updatedAt": "2023-10-13T09:17:39.944Z",
  "networkType": "ethereum",
  "devdoc": {
    "kind": "dev",
    "methods": {},
    "version": 1
  },
  "userdoc": {
    "kind": "user",
    "methods": {},
    "version": 1
  }
}