{
  "contractName": "ReviewContract",
  "abi": [
    {
      "inputs": [],
      "name": "postCount",
      "outputs": [
        {
          "internalType": "uint256",
          "name": "",
          "type": "uint256"
        }
      ],
      "stateMutability": "view",
      "type": "function",
      "constant": true
    },
    {
      "inputs": [
        {
          "internalType": "uint256",
          "name": "",
          "type": "uint256"
        }
      ],
      "name": "posts",
      "outputs": [
        {
          "internalType": "string",
          "name": "userId",
          "type": "string"
        },
        {
          "internalType": "string",
          "name": "reviewId",
          "type": "string"
        },
        {
          "internalType": "string",
          "name": "reviewStar",
          "type": "string"
        },
        {
          "internalType": "string",
          "name": "reviewText",
          "type": "string"
        },
        {
          "internalType": "string",
          "name": "writerNickname",
          "type": "string"
        },
        {
          "internalType": "uint256",
          "name": "createdAt",
          "type": "uint256"
        }
      ],
      "stateMutability": "view",
      "type": "function",
      "constant": true
    },
    {
      "inputs": [
        {
          "internalType": "string",
          "name": "_userId",
          "type": "string"
        },
        {
          "internalType": "string",
          "name": "_reviewId",
          "type": "string"
        },
        {
          "internalType": "string",
          "name": "_reviewStar",
          "type": "string"
        },
        {
          "internalType": "string",
          "name": "_reviewText",
          "type": "string"
        },
        {
          "internalType": "string",
          "name": "_writerNickname",
          "type": "string"
        },
        {
          "internalType": "uint256",
          "name": "_createdAt",
          "type": "uint256"
        }
      ],
      "name": "createReview",
      "outputs": [],
      "stateMutability": "nonpayable",
      "type": "function"
    },
    {
      "inputs": [
        {
          "internalType": "uint256",
          "name": "_postId",
          "type": "uint256"
        }
      ],
      "name": "getReview",
      "outputs": [
        {
          "internalType": "string",
          "name": "",
          "type": "string"
        },
        {
          "internalType": "string",
          "name": "",
          "type": "string"
        },
        {
          "internalType": "uint256",
          "name": "",
          "type": "uint256"
        },
        {
          "internalType": "string",
          "name": "",
          "type": "string"
        },
        {
          "internalType": "string",
          "name": "",
          "type": "string"
        }
      ],
      "stateMutability": "view",
      "type": "function",
      "constant": true
    },
    {
      "inputs": [
        {
          "internalType": "string",
          "name": "_userId",
          "type": "string"
        }
      ],
      "name": "getReviewsByName",
      "outputs": [
        {
          "components": [
            {
              "internalType": "string",
              "name": "userId",
              "type": "string"
            },
            {
              "internalType": "string",
              "name": "reviewId",
              "type": "string"
            },
            {
              "internalType": "string",
              "name": "reviewStar",
              "type": "string"
            },
            {
              "internalType": "string",
              "name": "reviewText",
              "type": "string"
            },
            {
              "internalType": "string",
              "name": "writerNickname",
              "type": "string"
            },
            {
              "internalType": "uint256",
              "name": "createdAt",
              "type": "uint256"
            }
          ],
          "internalType": "struct ReviewContract.Post[]",
          "name": "",
          "type": "tuple[]"
        },
        {
          "internalType": "uint256",
          "name": "",
          "type": "uint256"
        }
      ],
      "stateMutability": "view",
      "type": "function",
      "constant": true
    }
  ],
  "bytecode": "0x608060405234801561001057600080fd5b506116d9806100206000396000f3fe608060405234801561001057600080fd5b50600436106100575760003560e01c80630b1e7f831461005c57806317906c2e146100915780632470b72c146100af578063990581b6146100e05780639ce211c114610114575b600080fd5b61007660048036038101906100719190610ff3565b610130565b604051610088969594939291906112c3565b60405180910390f35b610099610414565b6040516100a691906113d6565b60405180910390f35b6100c960048036038101906100c49190610eb1565b61041a565b6040516100d7929190611293565b60405180910390f35b6100fa60048036038101906100f59190610ff3565b6108d1565b60405161010b959493929190611347565b60405180910390f35b61012e60048036038101906101299190610ef2565b610c5c565b005b600060205280600052604060002060009150905080600001805461015390611519565b80601f016020809104026020016040519081016040528092919081815260200182805461017f90611519565b80156101cc5780601f106101a1576101008083540402835291602001916101cc565b820191906000526020600020905b8154815290600101906020018083116101af57829003601f168201915b5050505050908060010180546101e190611519565b80601f016020809104026020016040519081016040528092919081815260200182805461020d90611519565b801561025a5780601f1061022f5761010080835404028352916020019161025a565b820191906000526020600020905b81548152906001019060200180831161023d57829003601f168201915b50505050509080600201805461026f90611519565b80601f016020809104026020016040519081016040528092919081815260200182805461029b90611519565b80156102e85780601f106102bd576101008083540402835291602001916102e8565b820191906000526020600020905b8154815290600101906020018083116102cb57829003601f168201915b5050505050908060030180546102fd90611519565b80601f016020809104026020016040519081016040528092919081815260200182805461032990611519565b80156103765780601f1061034b57610100808354040283529160200191610376565b820191906000526020600020905b81548152906001019060200180831161035957829003601f168201915b50505050509080600401805461038b90611519565b80601f01602080910402602001604051908101604052809291908181526020018280546103b790611519565b80156104045780601f106103d957610100808354040283529160200191610404565b820191906000526020600020905b8154815290600101906020018083116103e757829003601f168201915b5050505050908060050154905086565b60015481565b6060600080600090506000600190505b600154811161048d57848051906020012060008083815260200190815260200160002060000160405161045d919061127c565b6040518091039020141561047a5781806104769061157c565b9250505b80806104859061157c565b91505061042a565b5060008167ffffffffffffffff8111156104d0577f4e487b7100000000000000000000000000000000000000000000000000000000600052604160045260246000fd5b60405190808252806020026020018201604052801561050957816020015b6104f6610d5b565b8152602001906001900390816104ee5790505b509050600080600190505b60015481116108c2578680519060200120600080838152602001908152602001600020600001604051610547919061127c565b604051809103902014156108af5760008060008381526020019081526020016000206040518060c001604052908160008201805461058490611519565b80601f01602080910402602001604051908101604052809291908181526020018280546105b090611519565b80156105fd5780601f106105d2576101008083540402835291602001916105fd565b820191906000526020600020905b8154815290600101906020018083116105e057829003601f168201915b5050505050815260200160018201805461061690611519565b80601f016020809104026020016040519081016040528092919081815260200182805461064290611519565b801561068f5780601f106106645761010080835404028352916020019161068f565b820191906000526020600020905b81548152906001019060200180831161067257829003601f168201915b505050505081526020016002820180546106a890611519565b80601f01602080910402602001604051908101604052809291908181526020018280546106d490611519565b80156107215780601f106106f657610100808354040283529160200191610721565b820191906000526020600020905b81548152906001019060200180831161070457829003601f168201915b5050505050815260200160038201805461073a90611519565b80601f016020809104026020016040519081016040528092919081815260200182805461076690611519565b80156107b35780601f10610788576101008083540402835291602001916107b3565b820191906000526020600020905b81548152906001019060200180831161079657829003601f168201915b505050505081526020016004820180546107cc90611519565b80601f01602080910402602001604051908101604052809291908181526020018280546107f890611519565b80156108455780601f1061081a57610100808354040283529160200191610845565b820191906000526020600020905b81548152906001019060200180831161082857829003601f168201915b50505050508152602001600582015481525050905080848481518110610894577f4e487b7100000000000000000000000000000000000000000000000000000000600052603260045260246000fd5b602002602001018190525082806108aa9061157c565b935050505b80806108ba9061157c565b915050610514565b50818394509450505050915091565b60608060006060806000861180156108eb57506001548611155b61092a576040517f08c379a0000000000000000000000000000000000000000000000000000000008152600401610921906113b6565b60405180910390fd5b60008060008881526020019081526020016000206040518060c001604052908160008201805461095990611519565b80601f016020809104026020016040519081016040528092919081815260200182805461098590611519565b80156109d25780601f106109a7576101008083540402835291602001916109d2565b820191906000526020600020905b8154815290600101906020018083116109b557829003601f168201915b505050505081526020016001820180546109eb90611519565b80601f0160208091040260200160405190810160405280929190818152602001828054610a1790611519565b8015610a645780601f10610a3957610100808354040283529160200191610a64565b820191906000526020600020905b815481529060010190602001808311610a4757829003601f168201915b50505050508152602001600282018054610a7d90611519565b80601f0160208091040260200160405190810160405280929190818152602001828054610aa990611519565b8015610af65780601f10610acb57610100808354040283529160200191610af6565b820191906000526020600020905b815481529060010190602001808311610ad957829003601f168201915b50505050508152602001600382018054610b0f90611519565b80601f0160208091040260200160405190810160405280929190818152602001828054610b3b90611519565b8015610b885780601f10610b5d57610100808354040283529160200191610b88565b820191906000526020600020905b815481529060010190602001808311610b6b57829003601f168201915b50505050508152602001600482018054610ba190611519565b80601f0160208091040260200160405190810160405280929190818152602001828054610bcd90611519565b8015610c1a5780601f10610bef57610100808354040283529160200191610c1a565b820191906000526020600020905b815481529060010190602001808311610bfd57829003601f168201915b505050505081526020016005820154815250509050806000015181602001518260a0015183604001518460600151955095509550955095505091939590929450565b60016000815480929190610c6f9061157c565b91905055506040518060c001604052808781526020018681526020018581526020018481526020018381526020018281525060008060015481526020019081526020016000206000820151816000019080519060200190610cd1929190610d91565b506020820151816001019080519060200190610cee929190610d91565b506040820151816002019080519060200190610d0b929190610d91565b506060820151816003019080519060200190610d28929190610d91565b506080820151816004019080519060200190610d45929190610d91565b5060a08201518160050155905050505050505050565b6040518060c001604052806060815260200160608152602001606081526020016060815260200160608152602001600081525090565b828054610d9d90611519565b90600052602060002090601f016020900481019282610dbf5760008555610e06565b82601f10610dd857805160ff1916838001178555610e06565b82800160010185558215610e06579182015b82811115610e05578251825591602001919060010190610dea565b5b509050610e139190610e17565b5090565b5b80821115610e30576000816000905550600101610e18565b5090565b6000610e47610e4284611416565b6113f1565b905082815260208101848484011115610e5f57600080fd5b610e6a8482856114d7565b509392505050565b600082601f830112610e8357600080fd5b8135610e93848260208601610e34565b91505092915050565b600081359050610eab8161168c565b92915050565b600060208284031215610ec357600080fd5b600082013567ffffffffffffffff811115610edd57600080fd5b610ee984828501610e72565b91505092915050565b60008060008060008060c08789031215610f0b57600080fd5b600087013567ffffffffffffffff811115610f2557600080fd5b610f3189828a01610e72565b965050602087013567ffffffffffffffff811115610f4e57600080fd5b610f5a89828a01610e72565b955050604087013567ffffffffffffffff811115610f7757600080fd5b610f8389828a01610e72565b945050606087013567ffffffffffffffff811115610fa057600080fd5b610fac89828a01610e72565b935050608087013567ffffffffffffffff811115610fc957600080fd5b610fd589828a01610e72565b92505060a0610fe689828a01610e9c565b9150509295509295509295565b60006020828403121561100557600080fd5b600061101384828501610e9c565b91505092915050565b600061102883836111b9565b905092915050565b600061103b8261146c565b611045818561148f565b93508360208202850161105785611447565b8060005b858110156110935784840389528151611074858261101c565b945061107f83611482565b925060208a0199505060018101905061105b565b50829750879550505050505092915050565b600081546110b281611519565b6110bc81866114a0565b945060018216600081146110d757600181146110e85761111b565b60ff1983168652818601935061111b565b6110f185611457565b60005b83811015611113578154818901526001820191506020810190506110f4565b838801955050505b50505092915050565b600061112f82611477565b61113981856114ab565b93506111498185602086016114e6565b61115281611652565b840191505092915050565b600061116882611477565b61117281856114bc565b93506111828185602086016114e6565b61118b81611652565b840191505092915050565b60006111a3600f836114bc565b91506111ae82611663565b602082019050919050565b600060c08301600083015184820360008601526111d68282611124565b915050602083015184820360208601526111f08282611124565b9150506040830151848203604086015261120a8282611124565b915050606083015184820360608601526112248282611124565b9150506080830151848203608086015261123e8282611124565b91505060a083015161125360a086018261125e565b508091505092915050565b611267816114cd565b82525050565b611276816114cd565b82525050565b600061128882846110a5565b915081905092915050565b600060408201905081810360008301526112ad8185611030565b90506112bc602083018461126d565b9392505050565b600060c08201905081810360008301526112dd818961115d565b905081810360208301526112f1818861115d565b90508181036040830152611305818761115d565b90508181036060830152611319818661115d565b9050818103608083015261132d818561115d565b905061133c60a083018461126d565b979650505050505050565b600060a0820190508181036000830152611361818861115d565b90508181036020830152611375818761115d565b9050611384604083018661126d565b8181036060830152611396818561115d565b905081810360808301526113aa818461115d565b90509695505050505050565b600060208201905081810360008301526113cf81611196565b9050919050565b60006020820190506113eb600083018461126d565b92915050565b60006113fb61140c565b9050611407828261154b565b919050565b6000604051905090565b600067ffffffffffffffff82111561143157611430611623565b5b61143a82611652565b9050602081019050919050565b6000819050602082019050919050565b60008190508160005260206000209050919050565b600081519050919050565b600081519050919050565b6000602082019050919050565b600082825260208201905092915050565b600081905092915050565b600082825260208201905092915050565b600082825260208201905092915050565b6000819050919050565b82818337600083830152505050565b60005b838110156115045780820151818401526020810190506114e9565b83811115611513576000848401525b50505050565b6000600282049050600182168061153157607f821691505b60208210811415611545576115446115f4565b5b50919050565b61155482611652565b810181811067ffffffffffffffff8211171561157357611572611623565b5b80604052505050565b6000611587826114cd565b91507fffffffffffffffffffffffffffffffffffffffffffffffffffffffffffffffff8214156115ba576115b96115c5565b5b600182019050919050565b7f4e487b7100000000000000000000000000000000000000000000000000000000600052601160045260246000fd5b7f4e487b7100000000000000000000000000000000000000000000000000000000600052602260045260246000fd5b7f4e487b7100000000000000000000000000000000000000000000000000000000600052604160045260246000fd5b6000601f19601f8301169050919050565b7f496e76616c696420706f73742049440000000000000000000000000000000000600082015250565b611695816114cd565b81146116a057600080fd5b5056fea264697066735822122014b373a4c050168e3a86714819071711dc5b750abb5e7b3c7d8308275ed3986564736f6c63430008020033",
  "immutableReferences": {},
  "source": "// SPDX-License-Identifier: MIT\r\npragma solidity ^0.8.2;\r\n\r\ncontract ReviewContract {\r\n    struct Post {\r\n        string userId;\r\n        string reviewId;\r\n        string reviewStar;\r\n        string reviewText;\r\n        string writerNickname;\r\n        uint256 createdAt;\r\n    }\r\n\r\n    mapping(uint256 => Post) public posts;\r\n    uint256 public postCount;\r\n\r\n    function createReview(\r\n        string memory _userId,\r\n        string memory _reviewId,\r\n        string memory _reviewStar,\r\n        string memory _reviewText,\r\n        string memory _writerNickname,\r\n        uint256 _createdAt\r\n    ) public {\r\n        postCount++;\r\n        posts[postCount] = Post({\r\n            userId: _userId,\r\n            reviewId: _reviewId,\r\n            reviewStar: _reviewStar,\r\n            reviewText: _reviewText,\r\n            writerNickname: _writerNickname,\r\n            createdAt: _createdAt\r\n        });\r\n    }\r\n\r\n    function getReview(uint256 _postId) public view returns (string memory, string memory, uint256,string memory, string memory) {\r\n        require(_postId > 0 && _postId <= postCount, \"Invalid post ID\");\r\n        Post memory post = posts[_postId];\r\n        return (post.userId, post.reviewId, post.createdAt, post.reviewStar, post.reviewText);\r\n    }\r\n\r\n    function getReviewsByName(string memory _userId) public view returns (Post[] memory, uint256) {\r\n        uint256 count = 0;\r\n        \r\n        for (uint256 i = 1; i <= postCount; i++) {\r\n            if (keccak256(bytes(posts[i].userId)) == keccak256(bytes(_userId))) {\r\n                count++;\r\n            }\r\n        }\r\n\r\n        Post[] memory filteredPosts = new Post[](count);\r\n        \r\n        uint256 currentIndex = 0;\r\n\r\n        for (uint256 i = 1; i <= postCount; i++) {\r\n            if (keccak256(bytes(posts[i].userId)) == keccak256(bytes(_userId))) {\r\n                Post memory post = posts[i];\r\n                filteredPosts[currentIndex] = post;\r\n                currentIndex++;\r\n            }\r\n        }\r\n\r\n        return (filteredPosts, count);\r\n    }\r\n}\r\n\r\n",
  "sourcePath": "C:\\Users\\cotnc\\Desktop\\project\\code\\truffle_pr\\contracts\\reviewContract.sol",
  "compiler": {
    "name": "solc",
    "version": "0.8.2+commit.661d1103.Emscripten.clang"
  },
  "schemaVersion": "3.4.14",
  "updatedAt": "2023-10-13T09:17:40.581Z",
  "networkType": "ethereum",
  "devdoc": {
    "kind": "dev",
    "methods": {},
    "version": 1
  },
  "userdoc": {
    "kind": "user",
    "methods": {},
    "version": 1
  }
}